{
  "_format": "hh-sol-artifact-1",
  "contractName": "HogMarket",
  "sourceName": "contracts/HogMarket copy.sol",
  "abi": [
    {
      "inputs": [
        {
          "internalType": "contract ERC20",
          "name": "_token",
          "type": "address"
        },
        {
          "internalType": "contract ERC721",
          "name": "_nft",
          "type": "address"
        }
      ],
      "stateMutability": "nonpayable",
      "type": "constructor"
    },
    {
      "anonymous": false,
      "inputs": [
        {
          "indexed": true,
          "internalType": "address",
          "name": "user",
          "type": "address"
        },
        {
          "indexed": false,
          "internalType": "uint256",
          "name": "tokenId",
          "type": "uint256"
        }
      ],
      "name": "Bought",
      "type": "event"
    },
    {
      "anonymous": false,
      "inputs": [
        {
          "indexed": true,
          "internalType": "address",
          "name": "user",
          "type": "address"
        },
        {
          "indexed": false,
          "internalType": "uint256",
          "name": "tokenId",
          "type": "uint256"
        }
      ],
      "name": "Burned",
      "type": "event"
    },
    {
      "anonymous": false,
      "inputs": [
        {
          "indexed": true,
          "internalType": "address",
          "name": "user",
          "type": "address"
        },
        {
          "indexed": false,
          "internalType": "uint256",
          "name": "amount",
          "type": "uint256"
        }
      ],
      "name": "Claimed",
      "type": "event"
    },
    {
      "anonymous": false,
      "inputs": [
        {
          "indexed": true,
          "internalType": "address",
          "name": "user",
          "type": "address"
        },
        {
          "indexed": false,
          "internalType": "uint256",
          "name": "tokenId",
          "type": "uint256"
        }
      ],
      "name": "Locked",
      "type": "event"
    },
    {
      "anonymous": false,
      "inputs": [
        {
          "indexed": true,
          "internalType": "address",
          "name": "previousOwner",
          "type": "address"
        },
        {
          "indexed": true,
          "internalType": "address",
          "name": "newOwner",
          "type": "address"
        }
      ],
      "name": "OwnershipTransferred",
      "type": "event"
    },
    {
      "inputs": [],
      "name": "allowancePeriod",
      "outputs": [
        {
          "internalType": "uint256",
          "name": "",
          "type": "uint256"
        }
      ],
      "stateMutability": "view",
      "type": "function"
    },
    {
      "inputs": [],
      "name": "burnAddress",
      "outputs": [
        {
          "internalType": "address",
          "name": "",
          "type": "address"
        }
      ],
      "stateMutability": "view",
      "type": "function"
    },
    {
      "inputs": [],
      "name": "burnAllowance",
      "outputs": [
        {
          "internalType": "uint256",
          "name": "",
          "type": "uint256"
        }
      ],
      "stateMutability": "view",
      "type": "function"
    },
    {
      "inputs": [
        {
          "internalType": "uint24",
          "name": "tokenId",
          "type": "uint24"
        }
      ],
      "name": "buy",
      "outputs": [],
      "stateMutability": "nonpayable",
      "type": "function"
    },
    {
      "inputs": [],
      "name": "buyPrice",
      "outputs": [
        {
          "internalType": "uint256",
          "name": "",
          "type": "uint256"
        }
      ],
      "stateMutability": "view",
      "type": "function"
    },
    {
      "inputs": [],
      "name": "dailyAllowance",
      "outputs": [
        {
          "internalType": "uint256",
          "name": "",
          "type": "uint256"
        }
      ],
      "stateMutability": "view",
      "type": "function"
    },
    {
      "inputs": [],
      "name": "lockAllowance",
      "outputs": [
        {
          "internalType": "uint256",
          "name": "",
          "type": "uint256"
        }
      ],
      "stateMutability": "view",
      "type": "function"
    },
    {
      "inputs": [
        {
          "internalType": "address",
          "name": "",
          "type": "address"
        },
        {
          "internalType": "address",
          "name": "",
          "type": "address"
        },
        {
          "internalType": "uint256",
          "name": "",
          "type": "uint256"
        },
        {
          "internalType": "bytes",
          "name": "",
          "type": "bytes"
        }
      ],
      "name": "onERC721Received",
      "outputs": [
        {
          "internalType": "bytes4",
          "name": "",
          "type": "bytes4"
        }
      ],
      "stateMutability": "nonpayable",
      "type": "function"
    },
    {
      "inputs": [],
      "name": "owner",
      "outputs": [
        {
          "internalType": "address",
          "name": "",
          "type": "address"
        }
      ],
      "stateMutability": "view",
      "type": "function"
    },
    {
      "inputs": [],
      "name": "renounceOwnership",
      "outputs": [],
      "stateMutability": "nonpayable",
      "type": "function"
    },
    {
      "inputs": [
        {
          "internalType": "uint24",
          "name": "tokenId",
          "type": "uint24"
        }
      ],
      "name": "simpleBuy",
      "outputs": [],
      "stateMutability": "nonpayable",
      "type": "function"
    },
    {
      "inputs": [],
      "name": "totalLocked",
      "outputs": [
        {
          "internalType": "uint256",
          "name": "",
          "type": "uint256"
        }
      ],
      "stateMutability": "view",
      "type": "function"
    },
    {
      "inputs": [
        {
          "internalType": "address",
          "name": "newOwner",
          "type": "address"
        }
      ],
      "name": "transferOwnership",
      "outputs": [],
      "stateMutability": "nonpayable",
      "type": "function"
    },
    {
      "inputs": [
        {
          "internalType": "address",
          "name": "_addressOfToken",
          "type": "address"
        },
        {
          "internalType": "address",
          "name": "_recipient",
          "type": "address"
        },
        {
          "internalType": "uint256",
          "name": "_id",
          "type": "uint256"
        }
      ],
      "name": "withdrawERC721Tokens",
      "outputs": [
        {
          "internalType": "bool",
          "name": "",
          "type": "bool"
        }
      ],
      "stateMutability": "nonpayable",
      "type": "function"
    },
    {
      "inputs": [
        {
          "internalType": "address",
          "name": "_recipient",
          "type": "address"
        },
        {
          "internalType": "uint256",
          "name": "_value",
          "type": "uint256"
        }
      ],
      "name": "withdrawHog",
      "outputs": [
        {
          "internalType": "bool",
          "name": "",
          "type": "bool"
        }
      ],
      "stateMutability": "nonpayable",
      "type": "function"
    }
  ],
  "bytecode": "0x608060405260006001556201518060025568056bc75e2d63100000600355670de0b6b3a7640000600455680ad78ebc5ac6200000600555681043561a882930000060065561dead600760006101000a81548173ffffffffffffffffffffffffffffffffffffffff021916908373ffffffffffffffffffffffffffffffffffffffff1602179055503480156200009357600080fd5b5060405162001d6938038062001d698339818101604052810190620000b99190620002f2565b620000d9620000cd6200016360201b60201c565b6200016b60201b60201c565b81600960006101000a81548173ffffffffffffffffffffffffffffffffffffffff021916908373ffffffffffffffffffffffffffffffffffffffff16021790555080600a60006101000a81548173ffffffffffffffffffffffffffffffffffffffff021916908373ffffffffffffffffffffffffffffffffffffffff160217905550505062000339565b600033905090565b60008060009054906101000a900473ffffffffffffffffffffffffffffffffffffffff169050816000806101000a81548173ffffffffffffffffffffffffffffffffffffffff021916908373ffffffffffffffffffffffffffffffffffffffff1602179055508173ffffffffffffffffffffffffffffffffffffffff168173ffffffffffffffffffffffffffffffffffffffff167f8be0079c531659141344cd1fd0a4f28419497f9722a3daafe3b4186f6b6457e060405160405180910390a35050565b600080fd5b600073ffffffffffffffffffffffffffffffffffffffff82169050919050565b6000620002618262000234565b9050919050565b6000620002758262000254565b9050919050565b620002878162000268565b81146200029357600080fd5b50565b600081519050620002a7816200027c565b92915050565b6000620002ba8262000254565b9050919050565b620002cc81620002ad565b8114620002d857600080fd5b50565b600081519050620002ec81620002c1565b92915050565b600080604083850312156200030c576200030b6200022f565b5b60006200031c8582860162000296565b92505060206200032f85828601620002db565b9150509250929050565b611a2080620003496000396000f3fe608060405234801561001057600080fd5b50600436106100f55760003560e01c80638620410b11610097578063aab3ab9511610066578063aab3ab9514610250578063c83c17651461026e578063f2fde38b1461029e578063f870e31e146102ba576100f5565b80638620410b146101da5780638da5cb5b146101f85780639fe204b614610216578063a1dc247f14610232576100f5565b80635b5d8c18116100d35780635b5d8c181461016457806370d5ae0514610182578063715018a6146101a05780637a938dc4146101aa576100f5565b8063150b7a02146100fa57806331e0ebab1461012a5780635689141214610146575b600080fd5b610114600480360381019061010f919061127f565b6102d8565b604051610121919061133d565b60405180910390f35b610144600480360381019061013f9190611393565b6102ec565b005b61014e610631565b60405161015b91906113cf565b60405180910390f35b61016c610637565b60405161017991906113cf565b60405180910390f35b61018a61063d565b60405161019791906113f9565b60405180910390f35b6101a8610663565b005b6101c460048036038101906101bf9190611414565b610677565b6040516101d1919061146f565b60405180910390f35b6101e2610772565b6040516101ef91906113cf565b60405180910390f35b610200610778565b60405161020d91906113f9565b60405180910390f35b610230600480360381019061022b9190611393565b6107a1565b005b61023a610d99565b60405161024791906113cf565b60405180910390f35b610258610d9f565b60405161026591906113cf565b60405180910390f35b6102886004803603810190610283919061148a565b610da5565b604051610295919061146f565b60405180910390f35b6102b860048036038101906102b391906114dd565b610ebe565b005b6102c2610f41565b6040516102cf91906113cf565b60405180910390f35b600063150b7a0260e01b9050949350505050565b6000600a60009054906101000a900473ffffffffffffffffffffffffffffffffffffffff1673ffffffffffffffffffffffffffffffffffffffff166370a08231306040518263ffffffff1660e01b815260040161034991906113f9565b602060405180830381865afa158015610366573d6000803e3d6000fd5b505050506040513d601f19601f8201168201806040525081019061038a919061151f565b116103ca576040517f08c379a00000000000000000000000000000000000000000000000000000000081526004016103c1906115a9565b60405180910390fd5b600654600960009054906101000a900473ffffffffffffffffffffffffffffffffffffffff1673ffffffffffffffffffffffffffffffffffffffff166370a08231336040518263ffffffff1660e01b815260040161042891906113f9565b602060405180830381865afa158015610445573d6000803e3d6000fd5b505050506040513d601f19601f82011682018060405250810190610469919061151f565b10156104aa576040517f08c379a00000000000000000000000000000000000000000000000000000000081526004016104a190611615565b60405180910390fd5b600960009054906101000a900473ffffffffffffffffffffffffffffffffffffffff1673ffffffffffffffffffffffffffffffffffffffff166323b872dd33306006546040518463ffffffff1660e01b815260040161050b93929190611635565b6020604051808303816000875af115801561052a573d6000803e3d6000fd5b505050506040513d601f19601f8201168201806040525081019061054e9190611698565b50600a60009054906101000a900473ffffffffffffffffffffffffffffffffffffffff1673ffffffffffffffffffffffffffffffffffffffff166323b872dd3033846040518463ffffffff1660e01b81526004016105ae93929190611700565b600060405180830381600087803b1580156105c857600080fd5b505af11580156105dc573d6000803e3d6000fd5b505050503373ffffffffffffffffffffffffffffffffffffffff167fc55650ccda1011e1cdc769b1fbf546ebb8c97800b6072b49e06cd560305b1d67826040516106269190611737565b60405180910390a250565b60015481565b60035481565b600760009054906101000a900473ffffffffffffffffffffffffffffffffffffffff1681565b61066b610f47565b6106756000610fc5565b565b6000610681610f47565b600073ffffffffffffffffffffffffffffffffffffffff168373ffffffffffffffffffffffffffffffffffffffff16141580156106be5750600082115b6106c757600080fd5b600960009054906101000a900473ffffffffffffffffffffffffffffffffffffffff1673ffffffffffffffffffffffffffffffffffffffff1663a9059cbb84846040518363ffffffff1660e01b8152600401610724929190611752565b6020604051808303816000875af1158015610743573d6000803e3d6000fd5b505050506040513d601f19601f820116820180604052508101906107679190611698565b506001905092915050565b60065481565b60008060009054906101000a900473ffffffffffffffffffffffffffffffffffffffff16905090565b6000600a60009054906101000a900473ffffffffffffffffffffffffffffffffffffffff1673ffffffffffffffffffffffffffffffffffffffff166370a08231306040518263ffffffff1660e01b81526004016107fe91906113f9565b602060405180830381865afa15801561081b573d6000803e3d6000fd5b505050506040513d601f19601f8201168201806040525081019061083f919061151f565b1161087f576040517f08c379a0000000000000000000000000000000000000000000000000000000008152600401610876906115a9565b60405180910390fd5b6000600860008362ffffff16815260200190815260200160002060000160039054906101000a900465ffffffffffff1665ffffffffffff16116108f7576040517f08c379a00000000000000000000000000000000000000000000000000000000081526004016108ee906117c7565b60405180910390fd5b600654600960009054906101000a900473ffffffffffffffffffffffffffffffffffffffff1673ffffffffffffffffffffffffffffffffffffffff166370a08231336040518263ffffffff1660e01b815260040161095591906113f9565b602060405180830381865afa158015610972573d6000803e3d6000fd5b505050506040513d601f19601f82011682018060405250810190610996919061151f565b10156109d7576040517f08c379a00000000000000000000000000000000000000000000000000000000081526004016109ce90611615565b60405180910390fd5b600060018060008282546109eb9190611816565b925050819055506000600860008462ffffff1681526020019081526020016000206040518060600160405290816000820160009054906101000a900462ffffff1662ffffff1662ffffff1681526020016000820160039054906101000a900465ffffffffffff1665ffffffffffff1665ffffffffffff1681526020016000820160099054906101000a900473ffffffffffffffffffffffffffffffffffffffff1673ffffffffffffffffffffffffffffffffffffffff1673ffffffffffffffffffffffffffffffffffffffff168152505090506000816020015165ffffffffffff1690506002546004548242610ae19190611816565b610aeb919061184a565b610af591906118bb565b9250600960009054906101000a900473ffffffffffffffffffffffffffffffffffffffff1673ffffffffffffffffffffffffffffffffffffffff166323b872dd308460400151866040518463ffffffff1660e01b8152600401610b5a93929190611635565b6020604051808303816000875af1158015610b79573d6000803e3d6000fd5b505050506040513d601f19601f82011682018060405250810190610b9d9190611698565b50600960009054906101000a900473ffffffffffffffffffffffffffffffffffffffff1673ffffffffffffffffffffffffffffffffffffffff166323b872dd33306006546040518463ffffffff1660e01b8152600401610bff93929190611635565b6020604051808303816000875af1158015610c1e573d6000803e3d6000fd5b505050506040513d601f19601f82011682018060405250810190610c429190611698565b50600a60009054906101000a900473ffffffffffffffffffffffffffffffffffffffff1673ffffffffffffffffffffffffffffffffffffffff166323b872dd3033876040518463ffffffff1660e01b8152600401610ca293929190611700565b600060405180830381600087803b158015610cbc57600080fd5b505af1158015610cd0573d6000803e3d6000fd5b50505050600860008562ffffff168152602001908152602001600020600080820160006101000a81549062ffffff02191690556000820160036101000a81549065ffffffffffff02191690556000820160096101000a81549073ffffffffffffffffffffffffffffffffffffffff021916905550503373ffffffffffffffffffffffffffffffffffffffff167fc55650ccda1011e1cdc769b1fbf546ebb8c97800b6072b49e06cd560305b1d6785604051610d8b9190611737565b60405180910390a250505050565b60045481565b60025481565b6000610daf610f47565b600073ffffffffffffffffffffffffffffffffffffffff168473ffffffffffffffffffffffffffffffffffffffff1614158015610e195750600073ffffffffffffffffffffffffffffffffffffffff168373ffffffffffffffffffffffffffffffffffffffff1614155b610e2257600080fd5b600a60009054906101000a900473ffffffffffffffffffffffffffffffffffffffff1673ffffffffffffffffffffffffffffffffffffffff166323b872dd3085856040518463ffffffff1660e01b8152600401610e8193929190611635565b600060405180830381600087803b158015610e9b57600080fd5b505af1158015610eaf573d6000803e3d6000fd5b50505050600190509392505050565b610ec6610f47565b600073ffffffffffffffffffffffffffffffffffffffff168173ffffffffffffffffffffffffffffffffffffffff1603610f35576040517f08c379a0000000000000000000000000000000000000000000000000000000008152600401610f2c9061195e565b60405180910390fd5b610f3e81610fc5565b50565b60055481565b610f4f611089565b73ffffffffffffffffffffffffffffffffffffffff16610f6d610778565b73ffffffffffffffffffffffffffffffffffffffff1614610fc3576040517f08c379a0000000000000000000000000000000000000000000000000000000008152600401610fba906119ca565b60405180910390fd5b565b60008060009054906101000a900473ffffffffffffffffffffffffffffffffffffffff169050816000806101000a81548173ffffffffffffffffffffffffffffffffffffffff021916908373ffffffffffffffffffffffffffffffffffffffff1602179055508173ffffffffffffffffffffffffffffffffffffffff168173ffffffffffffffffffffffffffffffffffffffff167f8be0079c531659141344cd1fd0a4f28419497f9722a3daafe3b4186f6b6457e060405160405180910390a35050565b600033905090565b6000604051905090565b600080fd5b600080fd5b600073ffffffffffffffffffffffffffffffffffffffff82169050919050565b60006110d0826110a5565b9050919050565b6110e0816110c5565b81146110eb57600080fd5b50565b6000813590506110fd816110d7565b92915050565b6000819050919050565b61111681611103565b811461112157600080fd5b50565b6000813590506111338161110d565b92915050565b600080fd5b600080fd5b6000601f19601f8301169050919050565b7f4e487b7100000000000000000000000000000000000000000000000000000000600052604160045260246000fd5b61118c82611143565b810181811067ffffffffffffffff821117156111ab576111aa611154565b5b80604052505050565b60006111be611091565b90506111ca8282611183565b919050565b600067ffffffffffffffff8211156111ea576111e9611154565b5b6111f382611143565b9050602081019050919050565b82818337600083830152505050565b600061122261121d846111cf565b6111b4565b90508281526020810184848401111561123e5761123d61113e565b5b611249848285611200565b509392505050565b600082601f83011261126657611265611139565b5b813561127684826020860161120f565b91505092915050565b600080600080608085870312156112995761129861109b565b5b60006112a7878288016110ee565b94505060206112b8878288016110ee565b93505060406112c987828801611124565b925050606085013567ffffffffffffffff8111156112ea576112e96110a0565b5b6112f687828801611251565b91505092959194509250565b60007fffffffff0000000000000000000000000000000000000000000000000000000082169050919050565b61133781611302565b82525050565b6000602082019050611352600083018461132e565b92915050565b600062ffffff82169050919050565b61137081611358565b811461137b57600080fd5b50565b60008135905061138d81611367565b92915050565b6000602082840312156113a9576113a861109b565b5b60006113b78482850161137e565b91505092915050565b6113c981611103565b82525050565b60006020820190506113e460008301846113c0565b92915050565b6113f3816110c5565b82525050565b600060208201905061140e60008301846113ea565b92915050565b6000806040838503121561142b5761142a61109b565b5b6000611439858286016110ee565b925050602061144a85828601611124565b9150509250929050565b60008115159050919050565b61146981611454565b82525050565b60006020820190506114846000830184611460565b92915050565b6000806000606084860312156114a3576114a261109b565b5b60006114b1868287016110ee565b93505060206114c2868287016110ee565b92505060406114d386828701611124565b9150509250925092565b6000602082840312156114f3576114f261109b565b5b6000611501848285016110ee565b91505092915050565b6000815190506115198161110d565b92915050565b6000602082840312156115355761153461109b565b5b60006115438482850161150a565b91505092915050565b600082825260208201905092915050565b7f4e6f204e465420746f2062757900000000000000000000000000000000000000600082015250565b6000611593600d8361154c565b915061159e8261155d565b602082019050919050565b600060208201905081810360008301526115c281611586565b9050919050565b7f496e737566666963656e742062616c616e63652e000000000000000000000000600082015250565b60006115ff60148361154c565b915061160a826115c9565b602082019050919050565b6000602082019050818103600083015261162e816115f2565b9050919050565b600060608201905061164a60008301866113ea565b61165760208301856113ea565b61166460408301846113c0565b949350505050565b61167581611454565b811461168057600080fd5b50565b6000815190506116928161166c565b92915050565b6000602082840312156116ae576116ad61109b565b5b60006116bc84828501611683565b91505092915050565b6000819050919050565b60006116ea6116e56116e084611358565b6116c5565b611103565b9050919050565b6116fa816116cf565b82525050565b600060608201905061171560008301866113ea565b61172260208301856113ea565b61172f60408301846116f1565b949350505050565b600060208201905061174c60008301846116f1565b92915050565b600060408201905061176760008301856113ea565b61177460208301846113c0565b9392505050565b7f4e4654206973206e6f74206c6f636b65642e0000000000000000000000000000600082015250565b60006117b160128361154c565b91506117bc8261177b565b602082019050919050565b600060208201905081810360008301526117e0816117a4565b9050919050565b7f4e487b7100000000000000000000000000000000000000000000000000000000600052601160045260246000fd5b600061182182611103565b915061182c83611103565b9250828203905081811115611844576118436117e7565b5b92915050565b600061185582611103565b915061186083611103565b925082820261186e81611103565b91508282048414831517611885576118846117e7565b5b5092915050565b7f4e487b7100000000000000000000000000000000000000000000000000000000600052601260045260246000fd5b60006118c682611103565b91506118d183611103565b9250826118e1576118e061188c565b5b828204905092915050565b7f4f776e61626c653a206e6577206f776e657220697320746865207a65726f206160008201527f6464726573730000000000000000000000000000000000000000000000000000602082015250565b600061194860268361154c565b9150611953826118ec565b604082019050919050565b600060208201905081810360008301526119778161193b565b9050919050565b7f4f776e61626c653a2063616c6c6572206973206e6f7420746865206f776e6572600082015250565b60006119b460208361154c565b91506119bf8261197e565b602082019050919050565b600060208201905081810360008301526119e3816119a7565b905091905056fea264697066735822122079ba2b0feb75e0f92cdf0c7b1269d3aff52d109368add685fc8bdc1949a28f2764736f6c63430008110033",
  "linkReferences": {},
  "deployedLinkReferences": {}
}