{
  "_format": "hh-sol-artifact-1",
  "contractName": "SimpleHogMarket",
  "sourceName": "contracts/SimpleHogMarket.sol",
  "abi": [
    {
      "inputs": [
        {
          "internalType": "contract HOG",
          "name": "_token",
          "type": "address"
        },
        {
          "internalType": "contract ERC721",
          "name": "_nft",
          "type": "address"
        }
      ],
      "stateMutability": "nonpayable",
      "type": "constructor"
    },
    {
      "anonymous": false,
      "inputs": [
        {
          "indexed": true,
          "internalType": "address",
          "name": "user",
          "type": "address"
        },
        {
          "indexed": false,
          "internalType": "uint256",
          "name": "tokenId",
          "type": "uint256"
        }
      ],
      "name": "Bought",
      "type": "event"
    },
    {
      "anonymous": false,
      "inputs": [
        {
          "indexed": true,
          "internalType": "address",
          "name": "previousOwner",
          "type": "address"
        },
        {
          "indexed": true,
          "internalType": "address",
          "name": "newOwner",
          "type": "address"
        }
      ],
      "name": "OwnershipTransferred",
      "type": "event"
    },
    {
      "inputs": [],
      "name": "burnRate",
      "outputs": [
        {
          "internalType": "uint256",
          "name": "",
          "type": "uint256"
        }
      ],
      "stateMutability": "view",
      "type": "function"
    },
    {
      "inputs": [],
      "name": "buyPrice",
      "outputs": [
        {
          "internalType": "uint256",
          "name": "",
          "type": "uint256"
        }
      ],
      "stateMutability": "view",
      "type": "function"
    },
    {
      "inputs": [
        {
          "internalType": "address",
          "name": "",
          "type": "address"
        },
        {
          "internalType": "address",
          "name": "",
          "type": "address"
        },
        {
          "internalType": "uint256",
          "name": "",
          "type": "uint256"
        },
        {
          "internalType": "bytes",
          "name": "",
          "type": "bytes"
        }
      ],
      "name": "onERC721Received",
      "outputs": [
        {
          "internalType": "bytes4",
          "name": "",
          "type": "bytes4"
        }
      ],
      "stateMutability": "nonpayable",
      "type": "function"
    },
    {
      "inputs": [],
      "name": "owner",
      "outputs": [
        {
          "internalType": "address",
          "name": "",
          "type": "address"
        }
      ],
      "stateMutability": "view",
      "type": "function"
    },
    {
      "inputs": [],
      "name": "renounceOwnership",
      "outputs": [],
      "stateMutability": "nonpayable",
      "type": "function"
    },
    {
      "inputs": [
        {
          "internalType": "uint256",
          "name": "_burnRate",
          "type": "uint256"
        }
      ],
      "name": "setBurnRate",
      "outputs": [],
      "stateMutability": "nonpayable",
      "type": "function"
    },
    {
      "inputs": [
        {
          "internalType": "uint256",
          "name": "_buyPrice",
          "type": "uint256"
        }
      ],
      "name": "setBuyPrice",
      "outputs": [],
      "stateMutability": "nonpayable",
      "type": "function"
    },
    {
      "inputs": [
        {
          "internalType": "uint24",
          "name": "tokenId",
          "type": "uint24"
        }
      ],
      "name": "simpleBuy",
      "outputs": [],
      "stateMutability": "nonpayable",
      "type": "function"
    },
    {
      "inputs": [
        {
          "internalType": "address",
          "name": "newOwner",
          "type": "address"
        }
      ],
      "name": "transferOwnership",
      "outputs": [],
      "stateMutability": "nonpayable",
      "type": "function"
    },
    {
      "inputs": [
        {
          "internalType": "address",
          "name": "_addressOfToken",
          "type": "address"
        },
        {
          "internalType": "address",
          "name": "_recipient",
          "type": "address"
        },
        {
          "internalType": "uint256",
          "name": "_id",
          "type": "uint256"
        }
      ],
      "name": "withdrawERC721Tokens",
      "outputs": [
        {
          "internalType": "bool",
          "name": "",
          "type": "bool"
        }
      ],
      "stateMutability": "nonpayable",
      "type": "function"
    },
    {
      "inputs": [
        {
          "internalType": "address",
          "name": "_recipient",
          "type": "address"
        },
        {
          "internalType": "uint256",
          "name": "_value",
          "type": "uint256"
        }
      ],
      "name": "withdrawHog",
      "outputs": [
        {
          "internalType": "bool",
          "name": "",
          "type": "bool"
        }
      ],
      "stateMutability": "nonpayable",
      "type": "function"
    }
  ],
  "bytecode": "0x60806040526815af1d78b58c400000600155600a6002553480156200002357600080fd5b506040516200164038038062001640833981810160405281019062000049919062000282565b620000696200005d620000f360201b60201c565b620000fb60201b60201c565b81600360006101000a81548173ffffffffffffffffffffffffffffffffffffffff021916908373ffffffffffffffffffffffffffffffffffffffff16021790555080600460006101000a81548173ffffffffffffffffffffffffffffffffffffffff021916908373ffffffffffffffffffffffffffffffffffffffff1602179055505050620002c9565b600033905090565b60008060009054906101000a900473ffffffffffffffffffffffffffffffffffffffff169050816000806101000a81548173ffffffffffffffffffffffffffffffffffffffff021916908373ffffffffffffffffffffffffffffffffffffffff1602179055508173ffffffffffffffffffffffffffffffffffffffff168173ffffffffffffffffffffffffffffffffffffffff167f8be0079c531659141344cd1fd0a4f28419497f9722a3daafe3b4186f6b6457e060405160405180910390a35050565b600080fd5b600073ffffffffffffffffffffffffffffffffffffffff82169050919050565b6000620001f182620001c4565b9050919050565b60006200020582620001e4565b9050919050565b6200021781620001f8565b81146200022357600080fd5b50565b60008151905062000237816200020c565b92915050565b60006200024a82620001e4565b9050919050565b6200025c816200023d565b81146200026857600080fd5b50565b6000815190506200027c8162000251565b92915050565b600080604083850312156200029c576200029b620001bf565b5b6000620002ac8582860162000226565b9250506020620002bf858286016200026b565b9150509250929050565b61136780620002d96000396000f3fe608060405234801561001057600080fd5b50600436106100a95760003560e01c80637a938dc4116100715780637a938dc41461013c5780638620410b1461016c5780638da5cb5b1461018a578063bed99850146101a8578063c83c1765146101c6578063f2fde38b146101f6576100a9565b8063150b7a02146100ae578063189d165e146100de57806331e0ebab146100fa57806363ae8d6c14610116578063715018a614610132575b600080fd5b6100c860048036038101906100c39190610c39565b610212565b6040516100d59190610cf7565b60405180910390f35b6100f860048036038101906100f39190610d12565b610226565b005b610114600480360381019061010f9190610d7a565b610238565b005b610130600480360381019061012b9190610d12565b61062b565b005b61013a61063d565b005b61015660048036038101906101519190610da7565b610651565b6040516101639190610e02565b60405180910390f35b61017461074c565b6040516101819190610e2c565b60405180910390f35b610192610752565b60405161019f9190610e56565b60405180910390f35b6101b061077b565b6040516101bd9190610e2c565b60405180910390f35b6101e060048036038101906101db9190610e71565b610781565b6040516101ed9190610e02565b60405180910390f35b610210600480360381019061020b9190610ec4565b61087e565b005b600063150b7a0260e01b9050949350505050565b61022e610901565b8060028190555050565b6000600460009054906101000a900473ffffffffffffffffffffffffffffffffffffffff1673ffffffffffffffffffffffffffffffffffffffff166370a08231306040518263ffffffff1660e01b81526004016102959190610e56565b602060405180830381865afa1580156102b2573d6000803e3d6000fd5b505050506040513d601f19601f820116820180604052508101906102d69190610f06565b11610316576040517f08c379a000000000000000000000000000000000000000000000000000000000815260040161030d90610f90565b60405180910390fd5b600154600360009054906101000a900473ffffffffffffffffffffffffffffffffffffffff1673ffffffffffffffffffffffffffffffffffffffff166370a08231336040518263ffffffff1660e01b81526004016103749190610e56565b602060405180830381865afa158015610391573d6000803e3d6000fd5b505050506040513d601f19601f820116820180604052508101906103b59190610f06565b10156103f6576040517f08c379a00000000000000000000000000000000000000000000000000000000081526004016103ed90610ffc565b60405180910390fd5b6000606460025460015461040a919061104b565b61041491906110bc565b9050600360009054906101000a900473ffffffffffffffffffffffffffffffffffffffff1673ffffffffffffffffffffffffffffffffffffffff166323b872dd33306001546040518463ffffffff1660e01b8152600401610477939291906110ed565b6020604051808303816000875af1158015610496573d6000803e3d6000fd5b505050506040513d601f19601f820116820180604052508101906104ba9190611150565b50600460009054906101000a900473ffffffffffffffffffffffffffffffffffffffff1673ffffffffffffffffffffffffffffffffffffffff166323b872dd3033856040518463ffffffff1660e01b815260040161051a939291906111b8565b600060405180830381600087803b15801561053457600080fd5b505af1158015610548573d6000803e3d6000fd5b50505050600360009054906101000a900473ffffffffffffffffffffffffffffffffffffffff1673ffffffffffffffffffffffffffffffffffffffff166342966c68826040518263ffffffff1660e01b81526004016105a79190610e2c565b600060405180830381600087803b1580156105c157600080fd5b505af11580156105d5573d6000803e3d6000fd5b505050503373ffffffffffffffffffffffffffffffffffffffff167fc55650ccda1011e1cdc769b1fbf546ebb8c97800b6072b49e06cd560305b1d678360405161061f91906111ef565b60405180910390a25050565b610633610901565b8060018190555050565b610645610901565b61064f600061097f565b565b600061065b610901565b600073ffffffffffffffffffffffffffffffffffffffff168373ffffffffffffffffffffffffffffffffffffffff16141580156106985750600082115b6106a157600080fd5b600360009054906101000a900473ffffffffffffffffffffffffffffffffffffffff1673ffffffffffffffffffffffffffffffffffffffff1663a9059cbb84846040518363ffffffff1660e01b81526004016106fe92919061120a565b6020604051808303816000875af115801561071d573d6000803e3d6000fd5b505050506040513d601f19601f820116820180604052508101906107419190611150565b506001905092915050565b60015481565b60008060009054906101000a900473ffffffffffffffffffffffffffffffffffffffff16905090565b60025481565b600061078b610901565b600073ffffffffffffffffffffffffffffffffffffffff168473ffffffffffffffffffffffffffffffffffffffff16141580156107f55750600073ffffffffffffffffffffffffffffffffffffffff168373ffffffffffffffffffffffffffffffffffffffff1614155b6107fe57600080fd5b60008490508073ffffffffffffffffffffffffffffffffffffffff166323b872dd3086866040518463ffffffff1660e01b8152600401610840939291906110ed565b600060405180830381600087803b15801561085a57600080fd5b505af115801561086e573d6000803e3d6000fd5b5050505060019150509392505050565b610886610901565b600073ffffffffffffffffffffffffffffffffffffffff168173ffffffffffffffffffffffffffffffffffffffff16036108f5576040517f08c379a00000000000000000000000000000000000000000000000000000000081526004016108ec906112a5565b60405180910390fd5b6108fe8161097f565b50565b610909610a43565b73ffffffffffffffffffffffffffffffffffffffff16610927610752565b73ffffffffffffffffffffffffffffffffffffffff161461097d576040517f08c379a000000000000000000000000000000000000000000000000000000000815260040161097490611311565b60405180910390fd5b565b60008060009054906101000a900473ffffffffffffffffffffffffffffffffffffffff169050816000806101000a81548173ffffffffffffffffffffffffffffffffffffffff021916908373ffffffffffffffffffffffffffffffffffffffff1602179055508173ffffffffffffffffffffffffffffffffffffffff168173ffffffffffffffffffffffffffffffffffffffff167f8be0079c531659141344cd1fd0a4f28419497f9722a3daafe3b4186f6b6457e060405160405180910390a35050565b600033905090565b6000604051905090565b600080fd5b600080fd5b600073ffffffffffffffffffffffffffffffffffffffff82169050919050565b6000610a8a82610a5f565b9050919050565b610a9a81610a7f565b8114610aa557600080fd5b50565b600081359050610ab781610a91565b92915050565b6000819050919050565b610ad081610abd565b8114610adb57600080fd5b50565b600081359050610aed81610ac7565b92915050565b600080fd5b600080fd5b6000601f19601f8301169050919050565b7f4e487b7100000000000000000000000000000000000000000000000000000000600052604160045260246000fd5b610b4682610afd565b810181811067ffffffffffffffff82111715610b6557610b64610b0e565b5b80604052505050565b6000610b78610a4b565b9050610b848282610b3d565b919050565b600067ffffffffffffffff821115610ba457610ba3610b0e565b5b610bad82610afd565b9050602081019050919050565b82818337600083830152505050565b6000610bdc610bd784610b89565b610b6e565b905082815260208101848484011115610bf857610bf7610af8565b5b610c03848285610bba565b509392505050565b600082601f830112610c2057610c1f610af3565b5b8135610c30848260208601610bc9565b91505092915050565b60008060008060808587031215610c5357610c52610a55565b5b6000610c6187828801610aa8565b9450506020610c7287828801610aa8565b9350506040610c8387828801610ade565b925050606085013567ffffffffffffffff811115610ca457610ca3610a5a565b5b610cb087828801610c0b565b91505092959194509250565b60007fffffffff0000000000000000000000000000000000000000000000000000000082169050919050565b610cf181610cbc565b82525050565b6000602082019050610d0c6000830184610ce8565b92915050565b600060208284031215610d2857610d27610a55565b5b6000610d3684828501610ade565b91505092915050565b600062ffffff82169050919050565b610d5781610d3f565b8114610d6257600080fd5b50565b600081359050610d7481610d4e565b92915050565b600060208284031215610d9057610d8f610a55565b5b6000610d9e84828501610d65565b91505092915050565b60008060408385031215610dbe57610dbd610a55565b5b6000610dcc85828601610aa8565b9250506020610ddd85828601610ade565b9150509250929050565b60008115159050919050565b610dfc81610de7565b82525050565b6000602082019050610e176000830184610df3565b92915050565b610e2681610abd565b82525050565b6000602082019050610e416000830184610e1d565b92915050565b610e5081610a7f565b82525050565b6000602082019050610e6b6000830184610e47565b92915050565b600080600060608486031215610e8a57610e89610a55565b5b6000610e9886828701610aa8565b9350506020610ea986828701610aa8565b9250506040610eba86828701610ade565b9150509250925092565b600060208284031215610eda57610ed9610a55565b5b6000610ee884828501610aa8565b91505092915050565b600081519050610f0081610ac7565b92915050565b600060208284031215610f1c57610f1b610a55565b5b6000610f2a84828501610ef1565b91505092915050565b600082825260208201905092915050565b7f4e6f204e465420746f2062757900000000000000000000000000000000000000600082015250565b6000610f7a600d83610f33565b9150610f8582610f44565b602082019050919050565b60006020820190508181036000830152610fa981610f6d565b9050919050565b7f496e737566666963656e742062616c616e63652e000000000000000000000000600082015250565b6000610fe6601483610f33565b9150610ff182610fb0565b602082019050919050565b6000602082019050818103600083015261101581610fd9565b9050919050565b7f4e487b7100000000000000000000000000000000000000000000000000000000600052601160045260246000fd5b600061105682610abd565b915061106183610abd565b925082820261106f81610abd565b915082820484148315176110865761108561101c565b5b5092915050565b7f4e487b7100000000000000000000000000000000000000000000000000000000600052601260045260246000fd5b60006110c782610abd565b91506110d283610abd565b9250826110e2576110e161108d565b5b828204905092915050565b60006060820190506111026000830186610e47565b61110f6020830185610e47565b61111c6040830184610e1d565b949350505050565b61112d81610de7565b811461113857600080fd5b50565b60008151905061114a81611124565b92915050565b60006020828403121561116657611165610a55565b5b60006111748482850161113b565b91505092915050565b6000819050919050565b60006111a261119d61119884610d3f565b61117d565b610abd565b9050919050565b6111b281611187565b82525050565b60006060820190506111cd6000830186610e47565b6111da6020830185610e47565b6111e760408301846111a9565b949350505050565b600060208201905061120460008301846111a9565b92915050565b600060408201905061121f6000830185610e47565b61122c6020830184610e1d565b9392505050565b7f4f776e61626c653a206e6577206f776e657220697320746865207a65726f206160008201527f6464726573730000000000000000000000000000000000000000000000000000602082015250565b600061128f602683610f33565b915061129a82611233565b604082019050919050565b600060208201905081810360008301526112be81611282565b9050919050565b7f4f776e61626c653a2063616c6c6572206973206e6f7420746865206f776e6572600082015250565b60006112fb602083610f33565b9150611306826112c5565b602082019050919050565b6000602082019050818103600083015261132a816112ee565b905091905056fea26469706673582212205be0fd8d807f6f755202ef1b8f7075066991c28be29229c418d6588a4523b33664736f6c63430008110033",
  "linkReferences": {},
  "deployedLinkReferences": {}
}